:100000000C948B2D0C94BC2D0C94BC2D0C94BC2DFD
:100010000C94BC2D0C94BC2D0C94BC2D0C94BC2DBC
:100020000C94BC2D0C94BC2D0C94BC2D0C94BC2DAC
:100030000C94BC2D0C94BC2D0C9494810C944A818E
:100040000C94BC2D0C9457AC0C94BC2D0C94BC2D72
:100050000C94BC2D0C94BC2D0C94BC2D0D94EF3441
:100060000C94BC2D0C94BDF00C94BC2D0C94BC2DA8
:100070000C94BC2D0C94BC2D0C94BC2D0C94BC2D5C
:100080000C94BC2D0C94BC2D0C94BC2D0C94BC2D4C
:100090000C9479F00C94BC2D0C94BC2D0C94BC2DBC
:1000A0000C94BC2D0C94BC2D0C9467D80C94BC2DD6
:1000B0000C94BC2D0C94BC2D0C94BC2D0C94BC2D1C
:1000C0000C94BC2D0C94BC2D0C94BC2D0D9431447F
:1000D0000C94BC2D0C94BC2D0C94BC2D0C94BC2DFC
:1000E0000C94BC2D00960996B79586955695F49874
:1000F00044966397F7974B9867989E989FD69FD69C
:10010000A2D69FD6A2D6A5D6A8D6B1DCBFDCCFDCBE
:10011000E1DCFDDC03DD09DD17DD25DD33DD4ADD56
:1001200050DD5EDDED01A7017B014B01E101C7015F
:100130006301FD01190273011502730115027301B8
:1001400015022102C901D5016D01DD0155018901A9
:10015000A3015901E5019901750159019301490173
:10016000D701BB01BF01BD015101A101F5011D0274
:100170000902D301B9017F01F9017701EB016701A0
:100180001D021702E90101029501E701CF016B0190
:100190005701C301CD01C101530103029101DB01EC
:1001A0006101B501A9018501D9014F015F017D01FF
:1001B000F3018B01A50183018101B1014F0105020A
:1001C0006501AD01084AD73B3BCE016E84BCBFFD43
:1001D000C12F3D6C74319ABD56833DDA3D00C77F17
:1001E00011BED9E4BB4C3E916BAAAABE00000080B0
:1001F0003F05A84CCDB2D44EB93836A9020C50B93F
:10020000918688083CA6AAAA2ABE000000803F0763
:10021000634236B79BD8A71A39685618AEBAAB55A1
:100220008C1D3CB7CC5763BD6DEDFD753EF6177266
:1002300031BF000000803F08000000BE9224491238
:100240003EABAAAA2ABECDCCCC4C3E00000080BE5C
:10025000ABAAAAAA3E00000000BF000000803F0039
:1002600000000000084178D3BB4387D1133D190E2D
:100270003CC3BD4282AD2B3E68EC8276BED98FE195
:10028000A93E4C80EFFFBE01C4FF7F3F000000008D
:1002900000000D94F55F0D9434350D94A75C0D941A
:1002A000096F0D9488600D94496D0D946A5F0D94EB
:1002B000F06C0D94255F0D94A2580D94BA380D94EE
:1002C0009A6E0D94726E0D948D350D94F56E0D949D
:1002D000BD600D9435690D94FB6C0D944B5F0D94CE
:1002E000945C0D94CC5E0D94E8360D94D25F0D9421
:1002F000B5600D94815C0D9427350D94A26E0D941C
:10030000AB600D94D76E0D94C86E0D94866E0D94EF
:1003100064600D94745F0D94B46E0D94F45C0D9450
:10032000113E0D94856C0D94D85F0D949D6A0D94CB
:10033000CE5C0D94D65F0D940E580D94C55E0D9451
:100340008A380D948C600D94A35F0D94BE6E0D944D
:1003500019350D947C6E0D94416A0D94FF6E0D94C9
:10036000BC5B0D94E16E0D9432340D94776E0D9458
:10037000E73D0D94A7600D941A600D9499600D945B
:1003800096600D94596D0D94E56C0D94CE3D0D94D1
:100390004D350D94EE360D94005E0D94DA6C0D948F
:1003A000066D0D94F7680D94A1600D943B5F0D945C
:1003B00009600D94906E0D94696C0D945D5F0D94C1
:1003C000DF830D9446350D9412570D94C45F0D9440
:1003D000366D0D94C7600D94B9600D940B350D9476
:1003E000AE690D94473D0D94AA6E0D9492600D94E4
:1003F00044830D94AF600D946F570D946F350D9439
:10040000275A0D94CB600D94B36C0D94EB6E0D9444
:100410006B690D949D600D94BA5C0D94216A0D94E6
:1004200085570D94B6560D94C45C0D94EA360D9420
:10043000C3600D9485350D948C380D94D0600D9467
:10044000A2680D94EC366E616E00696E66004E41D6
:100450004E494E495459494E46CDCCCC3D0AD7233E
:100460003C17B7D13877CC2B329595E6241FB14F86
:100470000A000020410000C84200401C4620BCBECB
:100480004CCA1B0E5AAEC59D7400407A10F35A0038
:10049000A0724E18090010A5D4E80000E8764817AD
:1004A0000000E40B54020000CA9A3B000000E1F592
:1004B00005000080969800000040420F000000A058
:1004C0008601000000102700000000E80300000083
:1004D000006400000000000A0000000000010000AD
:1004E0000000002C76D888DC674F0823DFC1DFAE20
:1004F00059E1B1B796E5E3E453C63AE651997696E9
:10050000E8E6C28426EB898C9B62ED407C6FFCEFB1
:10051000BC9C9F40F2BAA56FA5F490055A2AF75CDF
:10052000936B6CF9676DC11BFCE0E40D47FEF52091
:10053000E6B500D0ED902E03009435770500808459
:100540001E080000204E0A000000C80C333333336D
:100550000F986E12831141EF8D2114893BE65516D9
:10056000CFFEE6DB18D1844B381BF77C1D901DA411
:10057000BBE424203284725E228100C9F124ECA104
:10058000E53D276364696E6F70737578585B00256D
:1005900064206279746573207772697474656E2063
:1005A000746F20454550524F4D2061742061646442
:1005B0007265737320307825303478004433202DF1
:1005C00020526561642F5772697465204545505209
:1005D0004F4D0A0020436F756E7420583A20005327
:1005E00044207072696E74696E6720627974652048
:1005F000004E6F7420696E206661726D206D6F64AD
:10060000652E00416374697665204578747275645F
:1006100065723A2000496E76616C69642065787471
:100620007275646572005A204F6666736574005572
:100630006E6B6E6F776E20636F6D6D616E643A20C6
:1006400022004D32303020496E76616C696420653D
:100650007874727564657220007A5F6D61783A20F3
:10066000007A5F6D696E3A2000795F6D696E3A209D
:10067000006F70656E00545249474745524544002B
:10068000785F6D696E3A20005265706F7274696EA2
:100690006720656E6473746F702073746174757312
:1006A0000053494C454E54004E4F524D414C00258D
:1006B00053204D4F44453A2050657263656E742057
:1006C000646F6E653A2025643B207072696E7420F9
:1006D00074696D652072656D61696E696E67206908
:1006E0006E206D696E733A2025640A00456E6420A1
:1006F00066696C65206C69737400426567696E2079
:1007000066696C65206C697374000A50494E4441F7
:100710002074656D70657261747572653A20252E5E
:100720003166205A20736869667420286D6D293AF5
:1007300020252E3366000A537465703A2025642FF5
:10074000360A000A537465703A2025642F36202833
:10075000736B6970706564290A50494E4441207476
:10076000656D70657261747572653A202564205AF2
:1007700020736869667420286D6D293A300A000A72
:100780005A45524F3A20252E33660A00737461721F
:10079000742074656D70657261747572653A202598
:1007A0002E31660A0025642020252E32660025534E
:1007B00020583A20252E356620593A20252E3566B8
:1007C000205A3A20252E35660A00536C6565702E36
:1007D0002E2E004E6F7420696E206661726D206D42
:1007E0006F64652E0025640045303A256420525020
:1007F0004D0A50524E303A25642052504D0A002581
:100800006400442D31202D20456E646C6573732087
:100810006C6F6F700A00416476616E6365204B3DBA
:10082000004B206F7574206F6620616C6C6F77656C
:10083000642072616E676521004D3232302053258D
:100840006900255346696C616D656E74207365742B
:1008500074696E67733A2044697361626C65640AF7
:1008600000255346696C616D656E74207365747400
:10087000696E67733A0A25532020204D32303020AC
:1008800044252E32660A00255352657472616374E2
:100890003A20533D4C656E67746820286D6D2920A1
:1008A000463A537065656420286D6D2F6D29205A76
:1008B0003A205A4C69667420286D6D290A25532008
:1008C00020204D3230372053252E32662046252EEB
:1008D0003266205A252E32660A25535265636F769A
:1008E00065723A20533D4578747261206C656E677D
:1008F000746820286D6D2920463A53706565642020
:10090000286D6D2F6D290A25532020204D32303857
:100910002053252E32662046252E32660A25534165
:1009200075746F2D526574726163743A20533D3053
:1009300020746F2064697361626C652C20312074AF
:100940006F20696E74657270726574206578747258
:100950007564652D6F6E6C79206D6F76657320619F
:1009600073207265747261637473206F7220726594
:10097000636F7665726965730A25532020204D32B6
:100980003039205325640A002553504944206865B6
:1009900061746265642073657474696E67733A0A82
:1009A00025532020204D3330342050252E32662010
:1009B00049252E32662044252E32660A00255350E2
:1009C00049442073657474696E67733A0A2553202D
:1009D00020204D3330312050252E32662049252EDF
:1009E00032662044252E32660A0025535374657002
:1009F000732070657220756E69743A0A2553202041
:100A00004D39322058252E32662059252E32662047
:100A10005A252E32662045252E32660A25534D6111
:100A200078696D756D2066656564726174657320A3
:100A3000286D6D2F73293A0A255320204D3230330B
:100A40002058252E32662059252E3266205A252E12
:100A500032662045252E32660A25534D6178696D30
:100A6000756D20616363656C65726174696F6E207A
:100A7000286D6D2F7332293A0A255320204D3230CC
:100A8000312058256C752059256C75205A256C75B8
:100A90002045256C750A2553416363656C65726159
:100AA00074696F6E3A20533D616363656C65726172
:100AB00074696F6E2C20543D72657472616374208A
:100AC000616363656C65726174696F6E0A2553209A
:100AD000204D3230342053252E32662054252E32BC
:100AE000660A2553416476616E636564207661729F
:100AF0006961626C65733A20533D4D696E2066658D
:100B000065647261746520286D6D2F73292C2054E3
:100B10003D4D696E2074726176656C206665656412
:100B20007261746520286D6D2F73292C20423D6DF4
:100B3000696E696D756D207365676D656E7420747F
:100B4000696D6520286D73292C20583D6D61786989
:100B50006D756D205859206A65726B20286D6D2F58
:100B600073292C20205A3D6D6178696D756D205A6E
:100B7000206A65726B20286D6D2F73292C2020450B
:100B80003D6D6178696D756D2045206A65726B20D9
:100B9000286D6D2F73290A255320204D32303520C2
:100BA00053252E32662054252E32662042252E32C1
:100BB000662058252E32662059252E3266205A2569
:100BC0002E32662045252E32660A2553486F6D6504
:100BD000206F666673657420286D6D293A0A255367
:100BE00020204D3230362058252E32662059252EB1
:100BF0003266205A252E32660A0046256420256476
:100C00000A004D4D55203C3D202746256420256493
:100C1000270A00504944204175746F74756E652031
:100C200066696E6973686564212050757420746804
:100C300065206C617374204B702C204B6920616EB1
:100C400064204B6420636F6E7374616E74732066EE
:100C5000726F6D2061626F766520696E746F2043DC
:100C60006F6E66696775726174696F6E2E68005089
:100C70004944204175746F74756E65206661696CB6
:100C80006564212074696D656F75740020403A00B9
:100C9000543A00423A00504944204175746F7475CB
:100CA0006E65206661696C6564212054656D7065B0
:100CB00072617475726520746F6F2068696768006F
:100CC000204B643A2000204B693A2000204B703AB8
:100CD000200020436C6173736963205049442000F5
:100CE0002054753A2000204B753A2000206D617821
:100CF0003A2000206D696E3A200020643A200020DE
:100D0000626961733A200020453A00205A3A002077
:100D1000593A0020453A00205A3A0020593A0058E2
:100D20003A00002E0044656C6574696F6E20666140
:100D3000696C65642C2046696C653A200046696CD4
:100D4000652064656C657465643A000A002F000ACA
:100D5000004E6F74205344207072696E74696E6720
:100D6000005072696E74207361766564005344208C
:100D70007072696E74207061757365640022283228
:100D8000290054004475706C696361746520542DAA
:100D9000636F64652069676E6F7265642E0A004434
:100DA00075706C696361746520542D636F64652090
:100DB00069676E6F7265642E0A00496E76616C69B0
:100DC00064205420636F64652E00556E6B6E6F77E0
:100DD0006E204D20636F64653A202573200A006EF3
:100DE0006F2076616C696420636F6D6D616E640065
:100DF0002C20002C20002C20006E2F61002C2000C5
:100E00002C20002C20006E2F61002F00503A00573C
:100E100061697420666F722050494E4441207461AC
:100E2000726765742074656D706572617475726542
:100E30003A004C414E472053454C20464F524345C3
:100E40004400222831290030303030303030302D0D
:100E5000303030302D303030302D303030302D309B
:100E6000303030303030303030303000205555495F
:100E7000443A0031002045585452554445525F438E
:100E80004F554E543A004D6F706564206A65737516
:100E90007A7A204D4B322E335300204D414348493E
:100EA0004E455F545950453A00312E300020626162
:100EB000736564206F6E204D61726C696E204649C7
:100EC000524D574152455F55524C3A687474707395
:100ED0003A2F2F6769746875622E636F6D2F707279
:100EE00075736133642F50727573612D4669726D2D
:100EF000776172652050524F544F434F4C5F5645B7
:100F00005253494F4E3A004649524D574152455F60
:100F10004E414D453A50727573612D4669726D7739
:100F200061726520004D31313320530020423A0078
:100F300020453A00543A0020503A002042403A00FE
:100F400020403A00202F003A00205400202F00209B
:100F5000423A00202F006F6B20543A002569206D23
:100F6000696E2C2025692073656300496E76616C7B
:100F70006964204D20636F64653A202573200A0060
:100F8000556E6B6E6F776E204720636F64653A20F5
:100F90002573200A004D65736820626564206C65C6
:100FA00076656C696E67206E6F7420616374697614
:100FB000652E000A002020000A4D65617375726578
:100FC0006420706F696E74733A000A5A2073656109
:100FD000726368206865696768743A20002C004E67
:100FE000756D20582C593A2000206D6963726F6E20
:100FF0007300457863657373697665206265642064
:101000006C6576656C696E6720636F727265637478
:10101000696F6E3A2000426564206C6576656C6984
:101020006E67206661696C65642E2053656E736F10
:10103000722074726967676572656420746F6F20CF
:10104000686967682E0A00426564206C6576656C85
:10105000696E67206661696C65642E2053656E73E6
:101060006F7220646973636F6E6E6563746564206C
:101070006F72206361626C652062726F6B656E2EA9
:101080000A004732382057300050494E4441207002
:10109000726F62652063616C6962726174696F6E00
:1010A00020737461727400473238205730004D321B
:1010B0003400472D636F646520736C696365642039
:1010C000666F72206120646966666572656E742061
:1010D0006C6576656C2E20436F6E74696E75653F26
:1010E00000472D636F646520736C696365642066D7
:1010F0006F72206120646966666572656E74206C2B
:101100006576656C2E20506C656173652072652D67
:10111000736C69636520746865206D6F64656C200D
:10112000616761696E2E205072696E742063616E12
:1011300063656C6C65642E00472D636F6465207376
:101140006C6963656420666F722061206E657765E7
:1011500072206669726D776172652E20506C6561D0
:1011600073652075706461746520746865206669B4
:10117000726D776172652E205072696E74206361A2
:101180006E63656C6C65642E00472D636F6465202B
:10119000736C6963656420666F722061206E657789
:1011A0006572206669726D776172652E20436F6E7D
:1011B00074696E75653F00472D636F646520736CBD
:1011C0006963656420666F72206120646966666584
:1011D00072656E74207072696E74657220747970B5
:1011E000652E20506C656173652072652D736C6986
:1011F000636520746865206D6F64656C206167614C
:10120000696E2E205072696E742063616E63656C26
:101210006C65642E00472D636F646520736C696391
:10122000656420666F722061206469666665726518
:101230006E74207072696E74657220747970652E98
:1012400020436F6E74696E75653F00472D636F6450
:101250006520736C6963656420666F722061206429
:101260006966666572656E74207072696E74657207
:1012700020747970652E20436F6E74696E75653FBA
:1012800000472D636F646520736C69636564206635
:101290006F72206120646966666572656E74207085
:1012A00072696E74657220747970652E20506C6559
:1012B0006173652072652D736C6963652074686560
:1012C000206D6F64656C20616761696E2E205072BD
:1012D000696E742063616E63656C6C65642E00508A
:1012E00072657373206B6E6F6220746F207072650D
:1012F00068656174206E6F7A7A6C6520616E642017
:10130000636F6E74696E75652E00506C65617365F0
:1013100020707265737320746865206B6E6F622035
:10132000746F20756E6C6F61642066696C616D65A9
:101330006E740052656D6F7665206F6C642066690F
:101340006C616D656E7420616E642070726573737C
:1013500020746865206B6E6F6220746F20737461F7
:101360007274206C6F6164696E67206E65772066A9
:10137000696C616D656E742E00616E6420707265BB
:10138000737320746865206B6E6F6200496E7365BD
:1013900072742066696C616D656E7400436F6C6F6A
:1013A00072206E6F7420636F727265637400466999
:1013B0006C616D656E74206E6F74206C6F61646516
:1013C00064004368616E67656420636F7272656371
:1013D000746C793F004C6F6164696E6720636F6C59
:1013E0006F72004368616E67652073756363657330
:1013F000732100506C65617365206F70656E2069A4
:10140000646C657220616E642072656D6F76652014
:1014100066696C616D656E74206D616E75616C6C72
:10142000792E005761732066696C616D656E74205A
:10143000756E6C6F61642073756363657373667535
:101440006C3F00506C6561736520757067726164F4
:10145000652E004E6577206669726D776172652032
:1014600076657273696F6E20617661696C61626C1A
:10147000653A0057616974696E6720666F72205023
:10148000494E44412070726F626520636F6F6C69D2
:101490006E670045787472756465720043686F6F9B
:1014A00073652065787472756465723A0043686F7D
:1014B0006F73652066696C616D656E743A004E6F7E
:1014C000206D6F76652E005761697420666F7220FB
:1014D000757365722E2E2E00536F6D652070726FBE
:1014E000626C656D20656E636F756E7465726564A0
:1014F0002C205A2D6C6576656C696E6720656E666A
:101500006F72636564202E2E2E00506C65617365CA
:101510002072656D6F766520737465656C207368E5
:101520006565742066726F6D2068656174626564BC
:101530002E00537461626C6520616D6269656E7422
:101540002074656D70657261747572652032312D1D
:10155000323643206973206E6565646564206120BE
:101560007269676964207374616E642069732072A4
:10157000657175697265642E00506C6561736520D4
:1015800072756E2058595A2063616C696272617479
:10159000696F6E2066697273742E0058300A00619C
:1015A00064635F696E69740A000A204F7269676933
:1015B0006E616C2050727573612069330A2020209F
:1015C0005072757361205265736561726368004380
:1015D0006F6E74696E7565207769746820616E6FCF
:1015E0007468657220626F7764656E3F0025002025
:1015F00020202020200020202020202000455241B3
:1016000053494E4720616C6C2064617461004661EF
:1016100063746F7279205245534554004661637478
:101620006F72792052455345540044495341424C0E
:10163000454400454E41424C4544000A004653652E
:101640006E736F72202553005052555341334446F8
:1016500057004D4B322E35534D4D553253001C4FD4
:101660004D4B322E355300FC00417567203133203D
:101670003230323000436F6D70696C65643A20001F
:10168000286E6F6E652C2064656661756C742063CE
:101690006F6E6669672900417567203133203230EB
:1016A00032302030313A31313A35300020332E3962
:1016B0002E4D4A322D333432310A00737461727404
:1016C000002055706C6F616420696E2070726F67C6
:1016D0007265737300205A3A0020593A0020583A34
:1016E000004D323900546865726520697320737447
:1016F000696C6C2061206E65656420746F206D617B
:101700006B65205A2063616C6962726174696F6EE7
:101710002E20506C6561736520666F6C6C6F77204E
:10172000746865206D616E75616C2C2063686170F2
:101730007465722046697273742073746570732CBB
:101740002073656374696F6E2043616C69627261B6
:1017500074696F6E20666C6F772E005072696E74BC
:10176000657220686173206E6F74206265656E20FB
:1017700063616C69627261746564207965742E209E
:10178000506C6561736520666F6C6C6F7720746850
:1017900065206D616E75616C2C2063686170746585
:1017A000722046697273742073746570732C207391
:1017B000656374696F6E2043616C696272617469FC
:1017C0006F6E20666C6F772E004F6C6420736574AB
:1017D00074696E677320666F756E642E204465664B
:1017E00061756C74205049442C2045737465707386
:1017F000206574632E2077696C6C206265207365A8
:10180000742E005761726E696E673A20626F746859
:10181000207072696E746572207479706520616ED3
:1018200064206D6F74686572626F61726420747990
:101830007065206368616E6765642E005761726E23
:10184000696E673A207072696E746572207479707F
:1018500065206368616E6765642E005761726E690A
:101860006E673A206D6F74686572626F6172642092
:1018700074797065206368616E6765642E0020204E
:10188000506C616E6E6572427566666572427974FF
:1018900065733A20002046726565204D656D6F7254
:1018A000793A2000207C20417574686F723A2000DC
:1018B000204C61737420557064617465643A200033
:1018C00020536F667477617265205265736574008A
:1018D000205761746368646F672052657365740094
:1018E0002042726F776E206F757420526573657435
:1018F000002045787465726E616C20526573657462
:1019000000506F7765725570006572726F72207744
:10191000726974696E6720746F2066696C65006512
:101920006E6473746F7073206869743A2000446F3A
:101930006E6520736176696E672066696C652E003E
:101940006F6B0022206661696C65643A204275669F
:101950006665722066756C6C21002200256920681E
:101960006F757273202569206D696E7574657300DB
:1019700054494D454F55543A004D3131300046756C
:101980006C6C2052582042756666657200656E71F7
:101990007565696E67202200446F6E6520707269FC
:1019A0006E74696E672066696C65004D3131322056
:1019B00063616C6C65642E20456D657267656E634E
:1019C000792053746F702E005072696E74657220A6
:1019D00073746F707065642064756520746F206522
:1019E00072726F72732E2046697820746865206564
:1019F00072726F7220616E6420757365204D393983
:101A00003920746F20726573746172742E202854AB
:101A1000656D706572617475726520697320726599
:101A20007365742E20536574206974206166746533
:101A3000722072657374617274696E6729004E6FEB
:101A4000204C696E65204E756D62657220776974F1
:101A50006820636865636B73756D2C204C617374CB
:101A6000204C696E653A20004E6F20436865636BB9
:101A700073756D2077697468206C696E65206E756A
:101A80006D6265722C204C617374204C696E653AEE
:101A90002000636865636B73756D206D69736D619C
:101AA0007463682C204C617374204C696E653A2015
:101AB000004C696E65204E756D62657220697320F9
:101AC0006E6F74204C617374204C696E65204E7586
:101AD0006D6265722B312C204C617374204C696EE1
:101AE000653A200053544F505045442E2000585919
:101AF0005A2063616C6962726174696F6E20616CF7
:101B00006C2072696768742E20536B657720776943
:101B10006C6C20626520636F72726563746564200B
:101B20006175746F6D61746963616C6C792E0058B6
:101B3000595A2063616C6962726174696F6E2061C9
:101B40006C6C2072696768742E20582F5920617858
:101B500065732061726520736C696768746C7920A5
:101B6000736B657765642E20476F6F64206A6F62C0
:101B7000210058595A2063616C6962726174696FFF
:101B80006E206F6B2E20582F59206178657320616D
:101B900072652070657270656E646963756C6172E0
:101BA0002E20436F6E67726174756C6174696F6E1D
:101BB00073210058595A2063616C696272617469BB
:101BC0006F6E206661696C65642E204C65667420BA
:101BD00066726F6E742063616C6962726174696FA2
:101BE0006E20706F696E74206E6F74207265616311
:101BF0006861626C652E0058595A2063616C696295
:101C0000726174696F6E206661696C65642E205222
:101C1000696768742066726F6E742063616C6962B4
:101C2000726174696F6E20706F696E74206E6F746C
:101C300020726561636861626C652E0058595A2094
:101C400063616C6962726174696F6E206661696C50
:101C500065642E2046726F6E742063616C696272D7
:101C60006174696F6E20706F696E7473206E6F742B
:101C700020726561636861626C652E0058595A2054
:101C800063616C6962726174696F6E206661696C10
:101C900065642E20506C6561736520636F6E73758B
:101CA0006C7420746865206D616E75616C2E0058CF
:101CB000595A2063616C6962726174696F6E206346
:101CC0006F6D70726F6D697365642E204C656674FC
:101CD0002066726F6E742063616C696272617469F0
:101CE0006F6E20706F696E74206E6F742072656104
:101CF000636861626C652E0058595A2063616C6993
:101D000062726174696F6E20636F6D70726F6D695E
:101D10007365642E2052696768742066726F6E74F2
:101D20002063616C6962726174696F6E20706F69A3
:101D30006E74206E6F7420726561636861626C6599
:101D40002E0058595A2063616C6962726174696F20
:101D50006E20636F6D70726F6D697365642E2046BF
:101D6000726F6E742063616C6962726174696F6E08
:101D700020706F696E7473206E6F7420726561637A
:101D80006861626C652E0058595A2063616C696203
:101D9000726174696F6E206661696C65642E2042A1
:101DA00065642063616C6962726174696F6E207032
:101DB0006F696E7420776173206E6F7420666F7523
:101DC0006E642E00506C6561736520706C61636594
:101DD00020737465656C207368656574206F6E2070
:101DE000686561746265642E00496D70726F766912
:101DF0006E67206265642063616C696272617469F8
:101E00006F6E20706F696E740049746572617469D9
:101E10006F6E200044697374616E6365206265743F
:101E20007765656E20746970206F66207468652020
:101E30006E6F7A7A6C6520616E64207468652062CA
:101E40006564207375726661636520686173206ED6
:101E50006F74206265656E20736574207965742ED9
:101E600020506C6561736520666F6C6C6F772074B1
:101E70006865206D616E75616C2C2063686170749B
:101E800065722046697273742073746570732C20B8
:101E900073656374696F6E204669727374206C6138
:101EA0007965722063616C6962726174696F6E2E0C
:101EB00000506C6163652061207368656574206FF4
:101EC0006620706170657220756E6465722074683A
:101ED00065206E6F7A7A6C6520647572696E672012
:101EE0007468652063616C6962726174696F6E20E9
:101EF0006F66206669727374203420706F696E7427
:101F0000732E20496620746865206E6F7A7A6C653E
:101F10002063617463686573207468652070617004
:101F200065722C20706F776572206F66662074680A
:101F300065207072696E74657220696D6D65646983
:101F40006174656C792E00206F66203400536561E2
:101F5000726368696E67206265642063616C6962A0
:101F6000726174696F6E20706F696E7400206F66A5
:101F70002039004D6561737572696E672072656600
:101F80006572656E636520686569676874206F6651
:101F90002063616C6962726174696F6E20706F6931
:101FA0006E7400506C6561736520636C65616E20B2
:101FB000746865206E6F7A7A6C6520666F72206334
:101FC000616C6962726174696F6E2E20436C696323
:101FD0006B207768656E20646F6E652E00417574A6
:101FE0006F20686F6D650043616C63756C61746927
:101FF0006F6E206F6620746865206D616368696E1E
:102000006520736B657720616E64206F666673650B
:1020100074206661696C65642E00203C2000574185
:10202000524E494E473A2046726F6E7420706F6967
:102030006E74206E6F7420726561636861626C6596
:102040002E205920636F6F7264696E6174653A0067
:1020500000497465726174696F6E3A200043616C67
:102060006962726174696F6E206661696C65642172
:1020700020436865636B2074686520617865732010
:10208000616E642072756E20616761696E2E00104A
:1020900000C90210012C014001220170011801B099
:1020A000010E01F00104015002FA00B002F000300C
:1020B00003E600D003DC009004D2007005C800A045
:1020C00006BE000008B400B009AA00D00BA0006052
:1020D0000E960060118C000015820020197800C057
:1020E0001D6E00A0226400B0275A00902C50000002
:1020F000314600E0343C0010383200903A2800604D
:102100003C1E00A03D1400803E0A00203F00004518
:1021100072723A204D494E54454D50003A20457850
:10212000747275646572207377697463686564207E
:102130006F66662E204D494E54454D50207472698D
:102140006767657265642021004572723A204D49C7
:102150004E54454D50204245440054656D706572A3
:102160006174757265206865617465642062656478
:10217000207377697463686564206F66662E204DEE
:10218000494E54454D5020747269676765726564A5
:102190002021004572723A204D415854454D50005F
:1021A0003A20457874727564657220737769746338
:1021B000686564206F66662E204D415854454D5029
:1021C00020747269676765726564202100457272C8
:1021D0003A204D415854454D5020424544005465E5
:1021E0006D7065726174757265206865617465648F
:1021F00020626564207377697463686564206F6624
:10220000662E204D415854454D50207472696767C1
:1022100065726564202100202D20496E76616C690D
:1022200064206578747275646572206E756D626580
:102230007220210070012C0190012701B0012201C0
:10224000C0011D01F00118011002130130020E013E
:102250006002090190020401C002FF000003FA00BD
:102260004003F5008003F000D003EB002004E600FB
:102270007004E100E004DC004005D700C005D20096
:102280004006CD00D006C8008007C3003008BE005D
:10229000F008B900C009B400B00AAF00B00BAA0042
:1022A000D00CA500000EA000500F9B00C01096009F
:1022B0005012910000148C00C0158700B0178200E6
:1022C000B0197D00D01B7800001E730040206E0006
:1022D00090226900F024640040275F0090295A0092
:1022E000E02B5500102E500020304B0010324600DD
:1022F000E033410090353C00103737007038320031
:10230000A0392D00B03A2800A03B2300603C1E00FD
:10231000103D1900903D1400103E0F00703E0A0061
:10232000C03E0500003F000020484F54454E442069
:10233000544845524D414C2052554E415741590049
:10234000204845415442454420544845524D414C53
:102350002052554E4157415900544845524D414C29
:102360002052554E4157415900424544205448455A
:10237000524D414C2052554E41574159002054482E
:1023800045524D414C2052554E415741592028202D
:102390005052454845415420484F54454E44290029
:1023A00020544845524D414C2052554E41574159B9
:1023B0002028205052454845415420484541544228
:1023C0004544290050524548454154204552524FFA
:1023D0005200424544205052454845415420455200
:1023E000524F5200506C6561736520726573746161
:1023F0007274006F6B0A0073746172740A004D4D41
:102400005532206669726D776172652076657273E8
:10241000696F6E20696E76616C69642E20526571F9
:1024200075697265642076657273696F6E3A2062B1
:1024300075696C64206E756D626572202564206F0D
:1024400072206869676865722E004D4D55203D3ECB
:1024500020276F6B270A004D4D55203D3E20276FEA
:102460006B270A002564004D4D55203D3E20276F07
:102470006B272C20726573756D65207072696E74A0
:102480000A004D4D5520726574727920617474652F
:102490006D7074206E722E2025640A004D4D5520FB
:1024A0003D3E20276F6B270A00410A004D4D552005
:1024B0003C3D202741270A004D363030004D363054
:1024C00030204155544F002568687500410A004D81
:1024D0004D55203C3D202741270A0050300A004D31
:1024E00025640A004D4D55203C3D20274D2564278D
:1024F0000A0057300A004D4D55203C3D20275730EB
:10250000270A0053330A004D4D55203C3D202753E8
:1025100033270A0052300A004D4D55203C3D2027FC
:102520005230270A004B25640A004D4D55203C3D92
:1025300020274B2564270A004525640A004D4D5588
:10254000203C3D2027452564270A0055300A004DD0
:102550004D55203C3D20275530270A0043300A00C6
:102560004D4D55203C3D20274330270A004C256423
:102570000A004D4D55203C3D20274C2564270A007C
:102580005425640A004D4D55203C3D2027542564B8
:10259000270A004D4D55202D20454E41424C4544C3
:1025A00000256868750050300A004D310A004D4D15
:1025B00055203C3D20274D3127004D4D5520766557
:1025C0007273696F6E2076616C6964004D4D5520A1
:1025D0003D3E202725646F6B270A00257500533286
:1025E0000A004D4D55203C3D2027533227004D4DCC
:1025F00055203D3E202725646F6B270A0025750076
:102600004D4D55206E6F7420726573706F6E6469E6
:102610006E67202D2044495341424C4544005331BC
:102620000A004D4D55203C3D2027533127004D4D8C
:1026300055203D3E202773746172742700657272C5
:102640006F723A20756E6B6E6F776E206D6F766568
:102650000A006E6F206D6F76650A00542D636F64FB
:10266000650A00756E6C6F61640A006C6F61640AC4
:10267000006D6D755F6765745F726573706F6E7303
:1026800065202D20626567696E206D6F76653A2042
:10269000006D6D755F6765745F726573706F6E73E3
:1026A0006528292072657475726E696E673A2025F7
:1026B000640A00556E6C6F6164696E672066696EAE
:1026C000697368656420320A00556E6C6F6164201E
:1026D000320A00556E6C6F6164696E672066696EC0
:1026E000697368656420310A00556E6C6F616420FF
:1026F000310A004D4D5520737461727473207265F8
:1027000073706F6E64696E670A004D4D55206E6F71
:102710007420726573706F6E64696E670A00466933
:102720006C616D656E74206F7574206F66207261C8
:102730006E6765202564200A000000803F5555859E
:10274000410000803F0000C8410000004055550591
:10275000420000C03F00004842000020405555851F
:1027600042000070C1ABAAA642000060C10000A0F8
:10277000410000C0C00000204100002041ABAA3A47
:1027800041000020C15555D540000048C2555505AF
:10279000424D373031204534004D373031204533FC
:1027A000004D373031204532004D37303120453132
:1027B000004D3730312045300046696C616D656EE3
:1027C00074206E72206F7574206F662072616E6760
:1027D000652100206661696C65642E002073756355
:1027E0006365656465642E004D4D552063616E5FC1
:1027F0006C6F61643A00506C65617365207570643C
:10280000617465206669726D7761726520696E20FA
:10281000796F7572204D4D55322E2057616974695C
:102820006E6720666F722072657365742E004D4D61
:1028300055204F4B2E20526573756D696E672E2E95
:102840002E004D4D55204F4B2E20526573756D69EE
:102850006E6720706F736974696F6E2E2E2E004D37
:102860004D55204F4B2E20526573756D696E672054
:1028700074656D70657261747572652E2E2E0046DA
:1028800069782074686520697373756520616E646A
:10289000207468656E20707265737320627574743D
:1028A0006F6E206F6E204D4D5520756E69742E0031
:1028B000507265737320746865206B6E6F6220744C
:1028C0006F20726573756D65206E6F7A7A6C652006
:1028D00074656D70657261747572652E004D4D552D
:1028E000206E65656473207573657220617474650C
:1028F0006E74696F6E2E0043757474696E6720661E
:10290000696C616D656E7400506C656173652072F1
:10291000656D6F76652066696C616D656E742061AA
:102920006E64207468656E207072657373207468BD
:1029300065206B6E6F622E00456A656374696E6711
:102940002066696C616D656E740025632533642FA4
:1029500025642563002563252D31382E3138532514
:102960006300252E31305320002563252D31382E6C
:102970003138732563002563252D2E313653200011
:102980005B25735D2563005B25535D25630025632F
:10299000252D31382E313853002563252E313553FE
:1029A0003A257325336400457872656D6520737030
:1029B000616E206F6620746865205A2076616C75A0
:1029C00065732100426564206C6576656C696E678D
:1029D000206661696C65642E2053656E736F72208A
:1029E0006469646E7420747269676765722E20442E
:1029F0006562726973206F6E206E6F7A7A6C653FC4
:102A00002057616974696E6720666F722072657302
:102A100065742E0024F4D43050C38E20C2A2401717
:102A2000828B7011127A910D816CD90AA861E1082C
:102A3000C7586607615143061E4B5D05C145A70493
:102A40001A411104093D9803713931034036DB0204
:102A500065339102D4305402802E1D02632CEE01A6
:102A6000752AC501B028A001102781018F256401B6
:102A70002B244B01E0223401AC211F018D200D01DC
:102A8000801FFC00841EED00971DDF00B81CD200E3
:102A9000E61BC600201BBC00641AB200B219A800D5
:102AA0000A19A0006A189900D117910040178B00ED
:102AB000B516840031167E00B31579003A157300FF
:102AC000C7146F0058146A00EE1366008813630081
:102AD00025135E00C7125B006C12570015125400DC
:102AE000C111510070114F0021114B00D610490047
:102AF0008D1047004610440002104200C00F4000F5
:102B0000800F3E00420F3C00060F3B00CB0E38000A
:102B1000930E37005C0E3500270E3400F30D3200A3
:102B2000C10D3100900D3000600D2E00320D2D00D2
:102B3000050D2C00D90C2B00AE0C2900850C2900AA
:102B40005C0C2700350C27000E0C2600E80B240037
:102B5000C40B2400A00B23007D0B23005A0B210083
:102B6000390B2100180B2000F80A1F00D90A1E009B
:102B7000BB0A1E009D0A1D00800A1D00630A1C007E
:102B8000470A1B002C0A1B00110A1A00F7091A0039
:102B9000DD091900C4091900AB09190092091700D1
:102BA0007B091800630917004C0916003609160046
:102BB000200916000A091500F5081500E0081400A0
:102BC000CC081400B8081400A408140090081300DE
:102BD0007D0812006B081300580812004608120006
:102BE0003408110023081100120811000108110017
:102BF000F0071000E0071000D0071000C007100019
:102C0000B0070F00A107100091070E0083070F0007
:102C100074070F0065070E0057070E0049070E00E6
:102C20003B070D002E070E0020070D0013070D00B7
:102C300006070D00F9060C00ED060D00E0060C007D
:102C4000D4060C00C8060C00BC060C00B0060C0034
:102C5000A4060B0099060C008D060B0082060B00E3
:102C600077060B006C060B0061060A0057060B0086
:102C70004C060A0042060A0038060A002E060A0020
:102C800024060A001A060A001006090007060A00B0
:102C9000FD050900F4050900EB050900E20509003E
:102CA000D9050900D0050900C7050900BE050900BE
:102CB000B5050800AD050800A50509009C0508003C
:102CC000940508008C050800840508007C050800B0
:102CD000740508006C050700650508005D05070020
:102CE000560508004E050700470507004005080087
:102CF00038050700310507002A05070023050700EE
:102D00001C050600160507000F050700080506004C
:102D100002050700FB040600F5040700EE040600A8
:102D2000E8040600E2040700DB040600D504060000
:102D3000CF040600C9040600C3040600BD04060053
:102D4000B7040600B1040500AC040600A6040600A2
:102D5000A00405009B0406009504050090040600ED
:102D60008A04050085040500800406007A04050035
:102D700075040500700405006B0405006604050079
:102D8000610405005C0405005704050052040500B9
:102D90004D04050048040500430405003E040400FA
:102DA0003A04050035040500300404002C04050035
:102DB00027040400230405001E0404001A04040070
:102DC00016040500110404000D04040009040500A4
:102DD0000404040000040400FC030400F8030400DD
:102DE000F4030400F0030400EC030400E80304000F
:102DF000E4030400E0030400DC030400D80304003F
:102E0000D4030400D0030400CC030400C80303006F
:102E1000C503030024F404D9201BC40C5C0E9804E1
:102E2000C4095F0265077101F405F900FB04B300F2
:102E300048048700C1036900580355000303450097
:102E4000BE023A008402310053022A002902250002
:102E500004022000E4011C00C8011900AF011700A2
:102E60009801140084011300710110006101100029
:102E700051010E0043010D0036010B002B010B0028
:102E800020010B00150109000C01090003010800D5
:102E9000FB000800F3000800EB000700E400060058
:102EA000DE000600D8000600D2000600CC000500B7
:102EB000C7000500C2000500BD000400B900040001
:102EC000B5000400B1000400AD000400A900040036
:102ED000A5000300A20003009F0004009B00030064
:102EE0009800030095000200930003009000030087
:102EF0008D0002008B0003008800020086000200A3
:102F000084000300810002007F0002007D000200B7
:102F10007B000200790002007700010076000200C9
:102F20007400020072000100710002006F000200D4
:102F30006D0001006C0002006A00010069000200DF
:102F400067000100660001006500010064000200E6
:102F50006200010061000100600001005F000200EA
:102F60005D0001005C0001005B0001005A000100EF
:102F700059000100580001005700010056000100EF
:102F800055000100540001005300000053000100EF
:102F90005200010051000100500001004F000100EB
:102FA0004E0000004E0001004D0001004C000100E9
:102FB0004B0000004B0001004A00010049000100E5
:102FC00048000000480001004700010046000000E2
:102FD00046000100450000004500010044000100DA
:102FE00043000000430001004200000042000100D5
:102FF0004100000041000100400001003F000000CE
:103000003F0001003E0000003E0001003D000000C6
:103010003D0001003C0000003C0000003C000100BD
:103020003B0000003B0001003A0000003A000100B4
:1030300039000000390001003800000038000000AD
:1030400038000100370000003700010036000000A2
:103050003600000036000100350000003500000099
:10306000350001003400000034000000340001008D
:103070003300000033000000330001003200000084
:103080003200000032000100310000003100000079
:10309000310001003000000030000000300001006D
:1030A0002F0000002F0000002F0000002F00010063
:1030B0002E0000002E0000002E0001002D00000058
:1030C0002D0000002D0000002D0001002C0000004C
:1030D0002C0000002C0000002C0001002B00000040
:1030E0002B0000002B0000002B0001002A00000034
:1030F0002A0000002A0000002A0001002900000028
:10310000290000002900000029000000290001001A
:10311000280000002800000028000000280000000F
:103120002800010027000000270000002700000001
:1031300027000000270001002600000026000000F4
:1031400026000000260000002600010025000000E7
:1031500025000000250000002500000025000000DB
:1031600025000100240000002400000024000000CD
:1031700024000000240001002300000023000000C0
:1031800023000000230000002300000023000000B3
:1031900023000100220000002200000022000000A5
:1031A0002200000022000000220001002100000097
:1031B000210000002100000021000000210000008B
:1031C000210000002100010020000000200000007C
:1031D000200000002000000020000000200000006F
:1031E00020000000200001001F0000001F00000060
:1031F0001F0000001F0000001F0000001F00000053
:103200001F0001001E0000001E0000001E00000044
:103210001E000000456A6563742066696C616D6517
:103220006E74004375742066696C616D656E740020
:10323000506C656173652070756C6C206F757420BF
:1032400066696C616D656E7420696D6D6564696138
:1032500074656C7900556E6C6F6164696E67206689
:10326000696C616D656E7400526573756D696E672A
:10327000207072696E740052657365740052656ED9
:10328000616D65004669727374206C6179657220A6
:1032900063616C2E0053656C6563740053746565DF
:1032A0006C207368656574730053686565740053BA
:1032B0007570706F7274004661696C20737461740C
:1032C00073204D4D55004661696C207374617473B1
:1032D00000537461746973746963732020004361DF
:1032E0006C6962726174696F6E004175746F4C6FC6
:1032F00061642066696C616D656E7400437574204D
:1033000066696C616D656E7400456A6563742066FC
:10331000696C616D656E7400556E6C6F61642066DA
:10332000696C616D656E74004C6F616420746F2010
:103330006E6F7A7A6C65004C6F61642066696C61AF
:103340006D656E74004E6F2053442063617264009B
:103350005072696E742066726F6D2053440052651E
:1033600073756D65207072696E7400506175736558
:10337000207072696E7400526573756D652070728D
:10338000696E7400507265686561740054756E658D
:10339000004C6976652061646A757374205A00492F
:1033A0006E666F2073637265656E0046696E697341
:1033B00068696E67206D6F76656D656E7473004128
:1033C0007373697374004F6E6365004C6F756400AE
:1033D000536F756E64004175746F20706F776572FE
:1033E0000053696C656E74004869676820706F7778
:1033F0006572004D6F64650046616E732063686599
:10340000636B0046696C2E2073656E736F720043A8
:1034100068616E67652066696C616D656E740046F3
:103420006C6F77005370656564004E2F41004D61ED
:10343000676E65747320636F6D702E004F66660053
:103440004F6E005A2D70726F6265206E722E004DA5
:103450006573680046616E2073706565640042653F
:1034600064004E6F7A7A6C650053657474696E6798
:1034700073004572723A20455854522E2046414EF0
:10348000204552524F52002F2F20616374696F6E96
:103490003A726573756D656400252D392E39535B5D
:1034A000002563252D31382E3138732563004661A0
:1034B000726D206E756D626572004D363030004958
:1034C000523A0046494E44413A0050494E44413A2E
:1034D0000053656E736F7220737461746500457874
:1034E000747275646572004D6F7665205A004D6F79
:1034F00076652059004D6F76652058004175746FD0
:103500006C6F6164696E672066696C616D656E746D
:1035100020617661696C61626C65206F6E6C7920E8
:103520007768656E2066696C616D656E7420736581
:103530006E736F72206973207475726E6564206F8C
:103540006E2E2E2E004552524F523A2046696C6123
:103550006D656E742073656E736F72206973206E73
:103560006F7420726573706F6E64696E672C207063
:103570006C6561736520636865636B20636F6E6E55
:10358000656374696F6E2E0043616C696272617469
:103590006500473830004D3435004D3435205A0031
:1035A0006D6D0059005800583A00593A005A3A00D7
:1035B0002563252D31332E313353252B352E33669C
:1035C0000020003E003E0020003E003E0054656D9D
:1035D00070657261747572652063616C6962726195
:1035E00074696F6E206661696C65642E20436F6E2E
:1035F00074696E756520776974682070726573737D
:10360000696E6720746865206B6E6F622E0054656A
:103610006D70657261747572652063616C69627248
:103620006174696F6E20646F6E652E20436F6E74D7
:10363000696E756520776974682070726573736947
:103640006E6720746865206B6E6F622E005A3000C2
:103650005A31005930005931005830005831004576
:103660006E642073746F70732064696167005B30EF
:103670003B305D20706F696E74206F666673657491
:103680000041646A757374696E67205A3A00526526
:1036900073657400526561722073696465205B759F
:1036A0006D5D0046726F6E7420736964655B756D45
:1036B0005D00526967687420736964655B756D5D50
:1036C000004C6566742073696465205B756D5D00F0
:1036D0005365742074656D70657261747572653AB6
:1036E0000057616974696E6720666F72206E6F7A29
:1036F0007A6C6520616E642062656420636F6F6C14
:10370000696E6700417265206C65667420616E6445
:10371000207269676874205A7E636172726961679A
:10372000657320616C6C2075703F0043616C696249
:10373000726174696E672058595A2E20526F7461F5
:10374000746520746865206B6E6F6220746F206DE5
:103750006F766520746865205A20636172726961B2
:10376000676520757020746F2074686520656E64CD
:103770002073746F70706572732E20436C69636B75
:10378000207768656E20646F6E652E0043616C69FA
:1037900062726174696E67205A2E20526F74617470
:1037A0006520746865206B6E6F6220746F206D6F8A
:1037B000766520746865205A20636172726961675A
:1037C0006520757020746F2074686520656E6420B4
:1037D00073746F70706572732E20436C69636B2015
:1037E0007768656E20646F6E652E0054656D706538
:1037F0007261747572652063616C6962726174696B
:103800006F6E206661696C65640054656D706572E9
:1038100061747572652063616C6962726174696F4D
:103820006E2069732066696E697368656420616ED5
:1038300064206163746976652E2054656D702E2056
:1038400063616C6962726174696F6E2063616E207E
:1038500062652064697361626C656420696E206DC5
:10386000656E752053657474696E67732D3E54657B
:103870006D702E2063616C2E0020203000202031DE
:103880000050494E44410054656D70657261747515
:103890007265730053656E736F7220696E666F0098
:1038A000457874727564657220696E666F00585948
:1038B0005A2063616C2E2064657461696C730075B5
:1038C0006E6B6E6F776E004D4D553220636F6E6E6E
:1038D000656374656400446174653A00686F777469
:1038E0006F2E707275736133642E636F6D00666F37
:1038F00072756D2E707275736133642E636F6D0017
:10390000707275736133642E636F6D00746F207510
:103910006E6C6F61642066696C616D656E740074B5
:103920006F206C6F61642066696C616D656E7400F8
:10393000507265737320746865206B6E6F62003E11
:1039400043616E63656C0050726568656174696E91
:103950006720746F206375740050726568656174C8
:10396000696E6720746F20656A65637400507265C4
:1039700068656174696E6720746F20756E6C6F6125
:10398000640050726568656174696E6720746F20A9
:103990006C6F616400436F6F6C646F776E00507280
:1039A000656865617420746865206E6F7A7A6C65ED
:1039B00021004552524F523A0046696C616D656E66
:1039C0007420657874727564696E67202620776943
:1039D000746820636F727265637420636F6C6F72BA
:1039E0003F004175746F6C6F6164696E6720666932
:1039F0006C616D656E7420697320616374697665AE
:103A00002C206A75737420707265737320746865F6
:103A1000206B6E6F6220616E6420696E73657274D4
:103A20002066696C616D656E742E2E2E0050726971
:103A30006E742074696D650046696C616D656E74A5
:103A4000207573656400546F74616C207072696EC8
:103A5000742074696D6500546F74616C2066696CC4
:103A6000616D656E74005269676874004C656674B8
:103A700000592064697374616E63652066726F6DAE
:103A8000206D696E0053657665726520736B65778E
:103A90003A00536C6967687420736B65773A004D20
:103AA0006561737572656420736B657700466C6140
:103AB000736841697220495020416464723A004D34
:103AC0004D5532202020202020204E2F41002564FB
:103AD0002E25642E25642D2564002046573A00418A
:103AE000756720313320323032300045334476362A
:103AF00066756C6C0052414D426F31336100315F2D
:103B000037356D6D5F4D4B3235002D2D2D2D2D2D03
:103B10002D2D2D2D2D2D00207265706F20556E6B73
:103B20006E6F776E0020332E392E4D4A322D33348E
:103B30003231004669726D776172653A0025642EF4
:103B400025642E25642E2564004D373032004D3714
:103B50003031004D373032004D37303100464C4562
:103B600058202D20203234302F3530005050202066
:103B7000202D20203235342F313030004849505329
:103B8000202D20203232302F31303000414253205E
:103B9000202D20203235352F313030004153412047
:103BA000202D20203236302F313035005045542022
:103BB000202D20203233302F383500504C4120202A
:103BC0002D20203231352F3630006E6F7A7A6C65B9
:103BD000202D20203235302F30006661726D20207C
:103BE000202D20203235302F383000252D31322E37
:103BF000313253252B382E31660045787472756446
:103C000065723A0025533A0A2531382E32666D2006
:103C10000A25533A0A2531306C6468202530326811
:103C200068646D20253032686864730025533A0A51
:103C30002531382E32666D200A25533A0A25313057
:103C40006C646420253032686864682025303268EE
:103C500068646D0025362E32666D6D0025533A0A74
:103C600025530A25533A0A25533A0025332E326646
:103C7000010025533A0A25530A252D31352E3135B9
:103C80005325332E3266010A252D31352E31355319
:103C900025332E326601002573206C6576656C2015
:103CA00065787065637465640046616C7365207443
:103CB000726967676572696E6700537761707065D6
:103CC000640046726F6E742F6C6566742066616E58
:103CD0007300417869730041786973206C656E6781
:103CE0007468004C6F6F73652070756C6C6579003B
:103CF000456E6473746F70206E6F74206869740011
:103D0000456E6473746F70004D6F746F7200456E12
:103D10006473746F707300576972696E672065729F
:103D2000726F7200426564202F204865617465726D
:103D3000004E6F7420636F6E6E6563746564004837
:103D400065617465722F546865726D6973746F7202
:103D500000506C6561736520636865636B203A0091
:103D600053656C6674657374206572726F7220217E
:103D70000046696C616D656E742073656E736F7259
:103D8000005072696E742066616E3A0045787472F4
:103D9000756465722066616E3A0043616C69627297
:103DA0006174696E6720686F6D650053656C667439
:103DB000657374206661696C6564202000416C6CD9
:103DC00020636F72726563742020202020200043DE
:103DD0006865636B696E672073656E736F727320BD
:103DE00000436865636B696E6720686F74656E6415
:103DF000202000436865636B696E672062656420FC
:103E00002020202000436865636B696E67205A207C
:103E100061786973202000436865636B696E672071
:103E2000592061786973202000436865636B696E6F
:103E30006720582061786973202000436865636BB0
:103E4000696E6720656E6473746F7073004572727B
:103E50006F72202D20737461746963206D656D6FBE
:103E6000727920686173206265656E206F76657275
:103E70007772697474656E00436172642072656D57
:103E80006F766564004D6F706564206A6573757A3E
:103E90007A204D4B322E3353204F4B2E00507269F7
:103EA0006E746572206E6F7A7A6C65206469616DDC
:103EB0006574657220646966666572732066726FE8
:103EC0006D2074686520472D636F64652E20506CEB
:103ED0006561736520636865636B2074686520762F
:103EE000616C756520696E2073657474696E6773A3
:103EF0002E205072696E742063616E63656C6C6510
:103F0000642E005072696E746572206E6F7A7A6CDE
:103F100065206469616D65746572206469666665B3
:103F200072732066726F6D2074686520472D636F11
:103F300064652E20436F6E74696E75653F002D2D8C
:103F40002D2D2D2D2D2D2D2D2D2D2D2D2D2D2D2DA1
:103F50002D2D000000000000110A0420573A002017
:103F6000453A00543A005A206C6976652061646ACB
:103F7000757374206F7574206F662072616E67654B
:103F80002E2053657474696E6720746F20302E2064
:103F9000436C69636B20746F20636F6E74696E7518
:103FA000652E005A206C6976652061646A757374A9
:103FB000206F7574206F662072616E67652E2053C6
:103FC000657474696E6720746F20300020423A0077
:103FD00020453A00543A000000211042206330840A
:103FE00040A550C660E770088129914AA16BB18C49
:103FF000C1ADD1CEE1EFF13112100273325222B5D0
:10400000529442F772D662399318837BB35AA3BD98
:10401000D39CC3FFF3DEE36224433420040114E69F
:1040200064C774A44485546AA54BB528850995EEE8
:10403000E5CFF5ACC58DD55336722611163006D7AF
:1040400076F6669556B4465BB77AA719973887DF38
:10405000F7FEE79DD7BCC7C448E5588668A77840F7
:1040600008611802282338CCC9EDD98EE9AFF94888
:104070008969990AA92BB9F55AD44AB77A966A710F
:104080001A500A333A122AFDDBDCCBBFFB9EEB79D8
:104090009B588B3BBB1AABA66C877CE44CC55C225F
:1040A0002C033C600C411CAEED8FFDECCDCDDD2A28
:1040B000AD0BBD688D499D977EB66ED55EF44E13EF
:1040C0003E322E511E700E9FFFBEEFDDDFFCCF1B78
:1040D000BF3AAF599F788F8891A981CAB1EBA10CE3
:1040E000D12DC14EF16FE18010A100C230E3200458
:1040F00050254046706760B9839893FBA3DAB33DBF
:10410000C31CD37FE35EF3B1029012F322D23235A7
:1041100042145277625672EAB5CBA5A89589856E8E
:10412000F54FE52CD50DC5E234C324A014810466F7
:1041300074476424540544DBA7FAB79987B8975F9E
:10414000E77EF71DC73CD7D326F2369106B0165747
:10415000667676154634564CD96DC90EF92FE9C8E6
:1041600099E9898AB9ABA94458654806782768C097
:1041700018E1088238A3287DCB5CDB3FEB1EFBF9FE
:104180008BD89BBBAB9ABB754A545A376A167AF1E7
:104190000AD01AB32A923A2EFD0FED6CDD4DCDAA4E
:1041A000BD8BADE89DC98D267C076C645C454CA237
:1041B0003C832CE01CC10C1FEF3EFF5DCF7CDF9BDE
:1041C000AFBABFD98FF89F176E367E554E745E9387
:1041D0002EB23ED10EF01E7C3C3E3F2F2A225C00C8
:1041E000506C656173652077616974005365747400
:1041F000696E67732053746F7265640053746F72D5
:1042000065642073657474696E6773207265747277
:1042100069657665640048617264636F64656420F3
:1042200044656661756C742053657474696E677358
:10423000204C6F6164656400563200000000C84283
:104240000000C8420000C843000005430000484386
:1042500000004843000040410000F042E803000035
:10426000E8030000C80000008813000000409C44E0
:1042700000409C440000000000000000204E0000B0
:104280000000204100002041CDCCCC3E00009040F9
:10429000000000000000000000000000CDCCCC3E7B
:1042A0003D0A8141FF08433EB099AB438F42FC4237
:1042B000E65A343F4C62B045000000000040400028
:1042C0000034420000000000000000000000410037
:1042D0000000E03F00002C4300002C430000404160
:1042E0000000F042C0030000C0030000C80000004E
:1042F0008813000010101010627573793A207061F5
:104300007573656420666F7220696E7075740062E3
:104310007573793A2070617573656420666F7220D9
:104320007573657200627573793A2070726F636598
:104330007373696E670000007A4300005243000007
:10434000524300000000CDCC0CC09A99193E0000E9
:104350000000CDCC0CC09A99193E67636F64655F0D
:104360004D37303120626567696E0A0041646469C7
:1043700074696F6E616C206C6F6164206174746528
:104380006D7074206E722E2025640A004D4D5520EC
:104390006C6F6164206661696C6564202020202058
:1043A0000020746F6F206C6F6E6720657874727573
:1043B00073696F6E2070726576656E746564002037
:1043C000636F6C6420657874727573696F6E2070AA
:1043D000726576656E7465640000004041000000FF
:1043E00040000057430000004000004041000046EC
:1043F0004300005743000046430000A0400000A0D7
:10440000400000004000007A43333354439AD951AE
:1044100043FFFFFF4D3234004D32332025730061DE
:1044200075746F25692E670047312045252D302E84
:104430003366204632373030004D38330022206654
:1044400061696C65643A20427566666572206675BE
:104450006C6C2100456E717565696E6720746F2004
:104460007468652066726F6E743A2022004572721D
:104470006F723A002200456E717565696E6720742F
:104480006F207468652066726F6E743A2022006532
:1044900063686F3A000102102020080810204010C5
:1044A00020408002010201080402010102040810F8
:1044B0002040808040201008040201800402018016
:1044C000402010080402010804020101020408103F
:1044D0002040800102040810204080100804088059
:1044E000102040044080102040048000002200255D
:1044F0000028002B002E00310034000201000005CE
:104500000108010B01050505050705080808080253
:104510000202020A0A08080404040401010101015C
:104520000101010303030303030303040707070C4B
:104530000C0C0C0C0C0C0C02020202060606060601
:104540000606060B0B0B0B0B0B0B0B07070A0A0AD5
:104550000A0A0A05050504040408080445455052E2
:104560004F4D204572726F72004D494E54454D506B
:1045700020424544206669786564004D494E5445A3
:104580004D5020484F54454E44206669786564007C
:104590004E6F2030784646207265636569766564A3
:1045A0000053656E64696E672030784646001F1FB1
:1045B0001F1F1F1F1F1F2E002E004E6F77206672B9
:1045C0006573682066696C653A20004E6F772064D9
:1045D0006F696E672066696C653A20002220706FF3
:1045E00073002220706172656E743A220053554246
:1045F000524F5554494E452043414C4C20746172F2
:104600006765743A22002E0053442063617264206F
:104610006F6B006F70656E526F6F74206661696CAE
:10462000656400766F6C756D652E696E69742066C1
:1046300061696C656400534420696E697420666129
:10464000696C0057726974696E6720746F206669BF
:104650006C653A200046696C652073656C6563740F
:104660006564002053697A653A200046696C6520CC
:104670006F70656E65643A2000747279696E6720A8
:10468000746F2063616C6C207375622D67636F6457
:10469000652066696C6573207769746820746F6F34
:1046A000206D616E79206C6576656C732E006F707D
:1046B000656E206661696C65642C2046696C653A9C
:1046C0002000536F7274696E672066696C657300B1
:1046D000536F6D652066696C65732077696C6C201B
:1046E0006E6F7420626520736F727465642E204D46
:1046F00061782E204E6F2E206F662066696C657380
:1047000020696E203120666F6C64657220666F725E
:1047100020736F7274696E67206973203130302E98
:1047200000437573746F6D0054657874757200532F
:104730006D6F6F74680047312059252D2E32662029
:1047400045252D2E336600473120582564205925F4
:104750002D2E32662045252D2E3366006673656E3C
:10476000736F725F636865636B706F696E745F709F
:1047700072696E740A00312E3000312E3500554EAC
:104780004B4E4F574E004C413130433A204C696EEE
:1047900065617220416476616E6365206D6F64654A
:1047A0003A20004C413130433A2041646A757374B9
:1047B000656420452D4A65726B3A2000000E131582
:1047C000110E00000004120912040000001C1F1149
:1047D000111F00000006191803130C00040E1F041B
:1047E0001C000000040A0A0A0A11110E001F15110C
:1047F000151F0000000103161C0800000000110A2C
:1048000004110A040C12120C000000005072696EB0
:10481000742061626F727465640053746F702070ED
:1048200072696E740046696C6520696E636F6D70A5
:104830006C6574652E20436F6E74696E75652061BA
:104840006E797761793F004261636B004D61696EFB
:10485000002F2F20616374696F6E3A63616E636528
:104860006C0043616E6E6F7420656E7465722073A8
:1048700075626469723A20004D3234004D32332043
:10488000257300052E2E0055534152543220727864
:104890002046756C6C2121210A00252D3773003AC2
:1048A000200025642F3600252D3230530020202093
:1048B00020202020202020202020202020202020F8
:1048C00000203A200020202020202020202020200E
:1048D00020202020202020202000252D3230730091
:1048E0002020202020202020202020202000257390
:1048F0000025632533642F25642563005A25362E51
:1049000032662563005A2020202D2D2D200025639E
:104910002533642525002D2D2D002533686864007E
:10492000253353253373252500555342002020207D
:1049300000205344002025753E257500203F3E256C
:104940007500204625750020463F00204630202077
:104950000025632D2D3A2D2D20200025632533754C
:10496000682025632563002563253032753A25309C
:104970003275256325630050494E444120486561E6
:1049800074696E670043616C6962726174696F6E0D
:1049900020646F6E650043616C6962726174696E58
:1049A00067205A0042656420646F6E65004265644A
:1049B0002048656174696E670048656174696E6757
:1049C00020646F6E652E0048656174696E670045EE
:1049D0007874722066616E2073706565643A202574
:1049E00064200A005072696E742066616E207370D4
:1049F0006565643A202564200A005465737420318B
:104A00003A0A004D3834006C63645F73656C66630A
:104A10006865636B5F617869732025642C20256469
:104A20000A0053656C662074657374204F4B005305
:104A3000656C6620746573742073746172742020D1
:104A400000526573656E640025533A20256C640A34
:104A500025530A00496E616374697669747920533D
:104A6000687574646F776E004B494C4C45442E203A
:104A7000005072696E7465722068616C7465642E92
:104A8000206B696C6C28292063616C6C6564210063
:104A90004B494C4C3A2025640A004D3232312049B2
:104AA0006E76616C696420657874727564657220D5
:104AB000004D32313820496E76616C69642065782A
:104AC00074727564657220004D31303920496E76FC
:104AD000616C696420657874727564657220004D3C
:104AE00031303520496E76616C6964206578747266
:104AF0007564657220004D31303420496E76616CEA
:104B0000696420657874727564657220004D363072
:104B100030006673656E736F725F75706461746583
:104B2000202D204D3630300A0048656174696E676B
:104B30002064697361626C656420627920736166C8
:104B40006574792074696D65722E0048572053652D
:104B500074757000436865636B73004E6F7A7A6C8E
:104B60006520642E00537465656C207368656574F8
:104B700073004E6F6E6500416C7068616265740011
:104B800054696D6500536F7274004E6F726D616C85
:104B900000466C617368416972005344206361721E
:104BA000640054656D702E2063616C2E004D65733A
:104BB0006820626564206C6576656C696E67004884
:104BC000572053657475700046616E732063686585
:104BD000636B00462E206175746F6C6F61640044D6
:104BE000697361626C6520737465707065727300BF
:104BF0004D6F766520617869730054656D706572DC
:104C000061747572650054656D702E2063616C6906
:104C100062726174696F6E005265736574205859D1
:104C20005A2063616C6962722E0053686F77206549
:104C30006E642073746F7073005049442063616C1C
:104C40006962726174696F6E00426564206C65769A
:104C5000656C20636F7272656374004D65736820C4
:104C6000426564204C6576656C696E670043616CD3
:104C7000696272617465205A0043616C6962726195
:104C800074652058595A0053656C667465737420B6
:104C900020202020202020200057697A61726400A3
:104CA0004C6F616420616C6C0044697361626C6577
:104CB000206661726D206D6F6465004661726D20C3
:104CC0006E756D626572004D3834004D34340047A6
:104CD00032382057004739390044697361626C6586
:104CE000206661726D206D6F64653F004737360046
:104CF00057697A6172642073746174653A2025641F
:104D00000A00536865657420252E37730A5A206F90
:104D100066667365743A20252B312E3366206D6DDF
:104D20000A2563436F6E74696E75650A2563537453
:104D30006172742066726F6D207A65726F00506CBC
:104D400065617365206C6F61642066696C616D6577
:104D50006E742066697273742E0049732066696CE4
:104D6000616D656E74206C6F616465643F004361C2
:104D70006E63656C0046696C616D656E74005365A9
:104D80006C6563742066696C616D656E743A00527F
:104D9000756E6E696E672057697A617264207769F3
:104DA0006C6C2064656C6574652063757272656EE9
:104DB000742063616C6962726174696F6E207265E0
:104DC00073756C747320616E6420737461727420E7
:104DD00066726F6D2074686520626567696E6E69C2
:104DE0006E672E20436F6E74696E75653F0050725A
:104DF0006568656174696E67206E6F7A7A6C652E7E
:104E000020506C6561736520776169742E004C6F6A
:104E10006164696E672066696C616D656E740050CF
:104E20006C6561736520696E736572742066696C68
:104E3000616D656E7420696E746F2074686520659D
:104E4000787472756465722C207468656E20707257
:104E500065737320746865206B6E6F6220746F20B9
:104E60006C6F61642069742E00506C6561736520FD
:104E7000696E736572742066696C616D656E74200D
:104E8000696E746F2074686520666972737420742B
:104E9000756265206F6620746865204D4D552C2025
:104EA0007468656E20707265737320746865206B1A
:104EB0006E6F6220746F206C6F61642069742E00C5
:104EC000546865207072696E7465722077696C6CC5
:104ED000207374617274207072696E74696E6720D9
:104EE00061207A69672D7A6167206C696E652E2072
:104EF000526F7461746520746865206B6E6F6220F8
:104F0000756E74696C20796F7520726561636820B5
:104F1000746865206F7074696D616C20686569677D
:104F200068742E20436865636B207468652070691F
:104F300063747572657320696E207468652068619A
:104F40006E64626F6F6B202843616C69627261747A
:104F5000696F6E2063686170746572292E005365F5
:104F60006C6563742074656D7065726174757265CB
:104F7000207768696368206D617463686573207960
:104F80006F7572206D6174657269616C2E00436883
:104F90006F6F736520612066696C616D656E74204A
:104FA000666F7220746865204669727374204C6164
:104FB0007965722043616C6962726174696F6E20F9
:104FC000616E642073656C65637420697420696E1A
:104FD00020746865206F6E2D73637265656E206D39
:104FE000656E752E004E6F7720492077696C6C20B6
:104FF00063616C6962726174652064697374616E67
:105000006365206265747765656E20746970206FD2
:105010006620746865206E6F7A7A6C6520616E64B4
:10502000206865617462656420737572666163658A
:105030002E00596F752063616E20616C7761797302
:1050400020726573756D65207468652057697A6193
:1050500072642066726F6D2043616C696272617464
:10506000696F6E202D3E2057697A6172642E005060
:105070006C6561736520636865636B206F75722072
:1050800068616E64626F6F6B20616E642066697820
:10509000207468652070726F626C656D2E20546894
:1050A000656E20726573756D65207468652057693B
:1050B0007A617264206279207265626F6F74696EC2
:1050C0006720746865207072696E7465722E004185
:1050D0006C6C20697320646F6E652E20486170705F
:1050E00079207072696E74696E6721004966207953
:1050F0006F752068617665206164646974696F6E9C
:10510000616C20737465656C207368656574732CBD
:105110002063616C6962726174652074686569728C
:10512000207072657365747320696E2053657474A2
:10513000696E6773202D2048572053657475702061
:105140002D20537465656C207368656574732E003B
:10515000506C6561736520636C65616E2068656184
:105160007462656420616E64207468656E2070727C
:1051700065737320746865206B6E6F622E00446FD8
:1051800020796F752077616E7420746F207265705E
:10519000656174206C617374207374657020746F22
:1051A00020726561646A7573742064697374616EDA
:1051B0006365206265747765656E206E6F7A7A6CC0
:1051C0006520616E6420686561746265643F0053A8
:1051D000656C656374206E6F7A7A6C652070726599
:1051E000686561742074656D70657261747572654F
:1051F000207768696368206D6174636865732079DE
:105200006F7572206D6174657269616C2E004973EF
:105210002066696C616D656E74206C6F6164656495
:105220003F0049732066696C616D656E74206C6F18
:10523000616465643F004E6F7720492077696C6C2C
:105240002070726568656174206E6F7A7A6C652073
:10525000666F7220504C412E00497320737465654F
:105260006C207368656574206F6E20686561746278
:1052700065643F00492077696C6C2072756E207AF6
:105280002063616C6962726174696F6E206E6F7702
:105290002E004E6F772072656D6F7665207468659D
:1052A0002074657374207072696E742066726F6DFD
:1052B00020737465656C2073686565742E00506C8E
:1052C000656173652072656D6F76652073686970BE
:1052D00070696E672068656C7065727320666972AC
:1052E00073742E00492077696C6C2072756E20787B
:1052F000797A2063616C6962726174696F6E206E85
:105300006F772E2049742077696C6C2074616B650F
:1053100020617070726F782E203132206D696E734B
:105320002E0046697273742C20492077696C6C20BA
:1053300072756E207468652073656C66746573742D
:1053400020746F20636865636B206D6F73742063D6
:105350006F6D6D6F6E20617373656D626C79207017
:10536000726F626C656D732E0048692C2049206154
:105370006D20796F7572204F726967696E616C205C
:105380005072757361206933207072696E74657232
:105390002E20576F756C6420796F75206C696B6572
:1053A000206D6520746F20677569646520796F755D
:1053B000207468726F7567682074686520736574FF
:1053C00075702070726F636573733F0053706F6FF9
:1053D0006C4A6F696E004375747465720046697239
:1053E0006D77617265004D6F64656C00537472690E
:1053F0006374005761726E0048572053657475706E
:105400000057697A61726420656E642073746174F8
:10541000653A2025640A0000002100240027002AA4
:10542000002D003000330001010000040107010AD3
:1054300001000020002300260029002C002F00324C
:10544000000001000003010601090100000A0B022F
:10545000090C0D0E08070304010000000000000005
:10546000000000000000000000000000000000003C
:1054700000000000000000121110000000000000F9
:10548000000000000000000000000000000000001C
:10549000000000000000000000000000000000000C
:1054A000003E003E0020003E003E002000332E392A
:1054B0002E4D4A32007263006265746100616C7047
:1054C000686100646576004E6F74207370696E6E5B
:1054D000696E67005370696E6E696E67004C656631
:1054E0007420686F74656E642066616E3F0046725A
:1054F0006F6E74207072696E742066616E3F004634
:10550000616E2074657374004E6F005965730045B9
:10551000303A20005A3A2000593A2000583A2000E8
:105520004D53312C4D53322050696E730A0045782B
:105530007472756465722066616E2073706565644F
:10554000206973206C6F776572207468616E2065C6
:1055500078706563746564005072696E742066616A
:105560006E207370656564206973206C6F77657257
:10557000207468616E2065787065637465640045A9
:1055800072723A205052494E542046414E204552A4
:10559000524F520047312058352E302045342E309E
:1055A0002046313030302E30004731205A302E32F4
:1055B000302046313030302E3000473120583535DC
:1055C0002E30204532352046313430302E300047E1
:1055D0003120592D322E302046313030302E3000DF
:1055E000473120583234302E30204532352E30208D
:1055F0002046323230302E30004739322045302EAE
:1056000030004731205A302E332046313030302E92
:1056100030004731205835352E302045382E302087
:1056200046323030302E300047312058352E302071
:105630004533322E302046313830302E300047315D
:10564000205835352E30204533322E30204631302B
:1056500037332E30004731204634303030004D3261
:105660003034205331303030004731205A35204615
:10567000373230302E30303000473120452D312E3A
:1056800035303030302046323130302E303030300E
:1056900030004D3833004739300047323100473948
:1056A000322045302E3000473120583530205935D2
:1056B000352045332E3632373733004731205832C4
:1056C0003030205935352045302E343933383600C6
:1056D00047312058323030205937352045332E3667
:1056E000323737330047312058353020593735208D
:1056F00045302E3439333836004731205835302084
:105700005939352045332E3632373733004731206B
:1057100058323030205939352045302E343933381D
:10572000360047312058323030205931313520454C
:10573000332E363237373300473120583530205931
:105740003131352045302E34393338360047312059
:1057500058353020593133352045332E36323737DE
:10576000330047312058323030205931333520450D
:10577000302E363631373400473120583230302021
:10578000593135352045322E3632373733004731DF
:1057900020583130302059313535204532004731DD
:1057A0002058373520593135352045322E350047C0
:1057B00031204631303830004731205A302E3135D3
:1057C000302046373230302E3030300047312058CC
:1057D00035302059313535004739322045302E30AB
:1057E00000473238004D313039004D313930004DED
:1057F00031303700542564004731205A302E342090
:1058000046313030302E3000473120592D332E3084
:105810002046313030302E30004D383300473120B3
:10582000583130302E30204531322E35204631303F
:1058300030302E30004731205836302E3020453958
:105840002E302046313030302E30003E5628561251
:10585000560256F955E055CF55BA55A95594559E5F
:10586000569A5696569256795669565E56555647EA
:105870003120583530205933352045252D2E3366BB
:1058800000CC57B857AF579E578E57785762574D31
:1058900057385722570D57F956E556D056BB56A7DD
:1058A00056496E76616C6964205049442063616C8E
:1058B0002E20726573756C74732E204E6F74207376
:1058C000746F72656420746F20454550524F4D2EA1
:1058D000004D353030004731205A313520463135C2
:1058E00030300047393100473120583530205931A8
:1058F00039302045302046373030300047393000CD
:105900004D3834004D373032204300473120583174
:105910003020593138302046343030300047312083
:105920005A31302046313330302E303030004D3156
:105930003430205330004D31303420533000473163
:1059400020452D302E303735303020463231303042
:105950002E3030303030004D3130370025530A20A2
:10596000252D31362E313653252D33640A20252D31
:1059700031362E313653252D33640025530A202528
:105980002D31362E313653252D33640A20252D3105
:10599000362E313653252D33640A20252D31362EEF
:1059A000313653252D33640025530A20252D3136F9
:1059B0002E313653252D33640A25530A20252D31E7
:1059C000362E313653252D33640A002025732533B6
:1059D0006401200A004D313137204669727374200A
:1059E0006C617965722063616C2E005049442063BC
:1059F000616C2E2066696E69736865640050494465
:105A00002063616C2E2020202020202020202020B8
:105A1000005072696E742070617573656400507215
:105A2000696E742046414E004E6F7A7A6C6520464E
:105A3000414E00546F74616C004C6173742070723D
:105A4000696E74004D4D55206C6F6164206661690C
:105A50006C73004D4D55206661696C73004C617329
:105A600074207072696E74206661696C75726573FA
:105A7000004D4D5520706F776572206661696C73BB
:105A8000004D4D55206C6F6164206661696C730038
:105A90004D4D55206661696C7300546F74616C20C4
:105AA0006661696C757265730046696C616D2E2064
:105AB00072756E6F75747300546F74616C206661DB
:105AC000696C757265730046696C616D2E20727524
:105AD0006E6F757473004C617374207072696E74AC
